:020000040000FA
:0600000010EF07F01200F2
:06002A000100540E00006D
:08003000780000000D00000043
:08003800696A686A100E6F6E20
:10004000080E6D6E00016D6B766B010E6E6F6F6941
:100050006DBAFED71200D9CFE6FFE1CFD9FF020E6D
:10006000E12668A202D06A6A85D068AC02D0689C9A
:1000700081D068A803D068986D827CD068A403D032
:1000800068946D9277D068AA02D0689A73D068A0FD
:100090002FD000016D6B6896689668966896706AB6
:1000A000716A726A736A746A756A766A776A786A5C
:1000B000796A7A6A7B6A7C6A7D6A7E6A7F6A0401F1
:1000C000080E016F800E026F040E036F880E006F22
:1000D000880E066F040E076F080E046F6E6A686A5A
:1000E000160E706E6B680001010E766F6E6F42D057
:1000F00068A640D07C0E6C14016A000F006E040EDE
:10010000012200C0DEFF01C0DDFFDECFE9FFDDCF51
:10011000EAFFEFCF60F0DECFE9FFDDCFEAFFEE527E
:10012000EFCF61F0DECFE9FFDDCFEAFF020EE92677
:10013000000EEA22EECF62F0EDCF63F06CCF75F0E7
:10014000689600016C6B3C0E6015040A09E0200AF9
:1001500005E0100A01E005D017D803D021DB01D05B
:100160003DDB00016CA106D00401080E016F840E76
:10017000046F006F020EE15C02E2E16AE552E16E9B
:10018000E552E7CFD9FF1200D9CFE6FFE1CFD9FF83
:10019000E652DF6A080EDF5C14E2DF500001EA6A13
:1001A0006225E96E6351EA22EF50E66EDF50EA6A9B
:1001B000640FE96E000EEA22E552E750EF6EDF2A87
:1001C000E9D70401080E016F046F800E0001641569
:1001D00004E16A5104E16B5102E1000E01D0010E0D
:1001E000000902E0C80E01D0880E0401006F6D986E
:1001F00000016F69600E6415400A09E0600A05E0BD
:10020000200A01E006D00BD805D06ADA03D06DDAF7
:1002100001D06C81E552E552E7CFD9FF1200D9CF6A
:10022000E6FFE1CFD9FF050EE12600016551070A7F
:1002300001E14BD20B0A01E148D2070A01E130D2B9
:10024000010A01E117D2030A01E1F1D1010A01E13A
:10025000E2D10E0A01E178D1030A01E167D1040A73
:1002600001E1C7D0020A01E1C4D0030A01E02DD2A6
:100270001F0E6415020A37E0030A16E0010A01E0C6
:10028000B6D006C4E9FF07C4EAFF6EC0EFFF010E57
:100290000401EA6A0625E96E0751EA22EF6A020EB6
:1002A000056FC80E046FA4D07651030A05E0010A59
:1002B00001E018D06C8116D0010E685D12E206C410
:1002C000E9FF07C4EAFFEF6A010E0401EA6A0625A6
:1002D000E96E0751EA22EF6A020E056FC80E046F3D
:1002E00001D06C8185D07651030A25E0010A01E036
:1002F0007CD00F0E68151DE1800E681503E0040127
:10030000045102D004010051040BE840E8403F0BC7
:1003100006C4E9FF07C4EAFFEF6E010EEA6A06258C
:10032000E96E0751EA22EF6A020E056FC80E046FEC
:1003300001D06C815BD0700EDE6E0F0EDD6E0F0E85
:100340006815E76E020EE7CFDBFF800E681502E04E
:10035000010E01D0000E026E020EDB50E8240210E6
:10036000040DF3CF00F0F4CF01F0000E0026040ED0
:100370000122030E00C0DBFF040E01C0DBFF800E74
:10038000681502E0020E01D0040E006E020EDB5072
:10039000E76E000EDFCFE9FF010EDBCFEAFFE7508B
:1003A000E926000EEA22EF5000141DE0030EDBCF19
:1003B000E9FF040EDBCFEAFFEF50040BE840E84012
:1003C0003F0B06C4E9FF07C4EAFFEF6E010E04010C
:1003D000EA6A0625E96E0751EA22EF6A020E056F06
:1003E000C80E046F01D06C8101D06C8101D06C818A
:1003F0006DD11F0E6415020A13E0020A01E094D0C9
:100400006651010A01E00AD0650502E16E9101D052
:100410006E810401056BC80E046F01D06C8185D01C
:100420007651030A0DE0010A01E07CD00F0E681539
:1004300005E10401056BC80E046F01D06C8173D017
:10044000700EDE6E0F0EDD6E0F0E6815E76E020E7B
:10045000E7CFDBFFDB505FE0800E681502E0010EA6
:1004600001D0000E026E020EDB50E8240210040DD3
:10047000F3CF00F0F4CF01F0000E0026040E0122AD
:10048000030E00C0DBFF040E01C0DBFF68AF22D00B
:10049000020EDB50E76E000EDFCFE9FF010EDBCF6F
:1004A000EAFFE750E926000EEA22EF50020B10E0C7
:1004B000650502E1000E01D0840EE66E030EDBCF6F
:1004C000E9FF040EDBCFEAFFE552E750EF6E01D003
:1004D0006C8121D0020EDB50E76E000EDFCFE9FF0A
:1004E000010EDBCFEAFFE750E926000EEA22EF50CB
:1004F000040B10E0650502E1880E01D0840EE66E63
:10050000030EDBCFE9FF040EDBCFEAFFE552E75035
:10051000EF6E01D06C816CB104D00401056BC80E84
:10052000046F01D06C8101D06C81D0D066517F08FE
:1005300002E26C8108D0050E6F6F66C070F0040196
:10054000056BC80E046FC2D0060E6F6F6751030AA9
:1005500036E0010A17E0030A01E05BD03A0E716F42
:100560000D0E726F71C0F6FF72C0F7FF0800F5CF75
:1005700073F06B5105E173516A5D02E26AC073F07A
:1005800043D948D0665101E005D04C0E716F0D0E75
:10059000726F01D06C816CB111D0020EF76A7125B7
:1005A000F66E7251F7220800F5CF73F06B5105E13A
:1005B00073516A5D02E26AC073F026D92BD066518E
:1005C000020A0FE0030A08E0010A01E00FD05E0E04
:1005D000716F0D0E726F0BD0620E716F0D0E726F18
:1005E00006D0960E716F0D0E726F01D06C816CB1DA
:1005F0000FD071C0F6FF72C0F7FF0800F5CF73F09F
:100600006B5105E173516A5D02E26AC073F0FCD878
:1006100001D06C815BD006C4E9FF07C4EAFF6DC05E
:10062000EFFF0401010E056FC80E046F4FD0665135
:1006300001081EE3716A726A736A746A756A766A7F
:10064000776A786A796A7A6A7B6A7C6A7D6A7E6A86
:100650007F6A66C06DF0665101E003D0020E766FCE
:1006600002D0030E766F0401056BC80E046F01D033
:100670006C812CD07651030A01E010D0010E685D28
:100680000BE206C4E9FF07C4EAFFEF6A0401010EAA
:10069000056FC80E046F01D06C8101D06C8116D03B
:1006A0007651030A01E00FD0010E685D0AE266513F
:1006B00001E005D00401056BC80E046F01D06C8108
:1006C00001D06C8101D06C8101D06C81050EE15CA0
:1006D00002E2E16AE552E16EE552E7CFD9FF12008E
:1006E0000001655100D06C811200D9CFE6FFE1CF47
:1006F000D9FF0C0EE126090EDB6AC80EF36E0A0E56
:10070000F3CFDBFF0B0EDB6AD950010FE66E000E54
:10071000DA20E66ED950090FE66E000EDA20E66E9A
:1007200066C0E6FF65C0E6FF8BEC04F0006E060EC7
:10073000E15E0050090EDBCF05F40A0EDBCF04F4B6
:100740000B0EDB5000016C13010E0401055D1EE36E
:10075000DF6A0551DF5C1AE2D950010F006EDACF73
:1007600001F0DF500F010024E96E000E0120EA6E57
:10077000EF50E66EDF500401EA6A0625E96E075184
:10078000EA22E552E750EF6EDF2AE3D70C0EE15C78
:1007900002E2E16AE552E16EE552E7CFD9FF1200CD
:1007A000180E00017515100A17E0180A14E0080A5F
:1007B00001E013D06F51060A0BE0030A01E00AD0F2
:1007C00070C06EFF6E5001E002D0010E766F02D055
:1007D0001BD800D002D001D000D01200180E0001AA
:1007E0007515100A0FE0180A0CE0080A01E00BD09A
:1007F0000401080E016F880E006F056BC80E046FB0
:1008000002D001D000D01200D9CFE6FFE1CFD9FF4E
:10081000E652080E0001735D05E26F6973C074F063
:10082000736B03D0080E746F735FDF6A000174513D
:10083000DF5C16E271C0F6FF72C0F7FF712B000E8D
:1008400072230800F550E66EDF500401EA6A0625BF
:10085000E96E0751EA22E552E750EF6EDF2AE6D74C
:1008600074C005F4400E04010419400B8809046F9C
:0A087000E552E552E7CFD9FF120070
:06087A00D9CFE6FFE1CF3B
:10088000D9FFE652806A816A826A010E926E936A8B
:10089000400E946E010EC26E0D0EC16E2E0EC06E15
:1008A000850ED56E1CEC00F02BEC00F0DCEC05F0B6
:1008B00000017F6F2BEC00F082AC08D0827EC80E66
:1008C000E66EE66A1EEC07F0E552E552E66AE4ECF5
:1008D00006F0E55200018F6F00018051D75C02E203
:1008E000010E01D0000EE8B08082E8A08092815114
:1008F000D65C02E2010E01D0000EE8B08084E8A0D0
:100900008094D7CF7CF0D6CF7DF0D4D7E552E55296
:10091000E7CFD9FF1200D9CFE6FFE1CFD9FF020E12
:10092000E126FE0EDB50150A01E12ED1010A01E19C
:1009300017D1310A01E110D1010A01E109D1070AF9
:1009400001E102D1030A01E1FBD03F0A01E1F4D049
:10095000010A01E1EDD0120A01E1B7D0070A5EE019
:10096000010A30E0090A15E0070A01E00ED1FD0E88
:10097000DB5002E0010E01D0000EE8B0828EE8A04C
:10098000829EFB0EDBCFE9FFFC0EDBCFEAFFEF6AB6
:1009900009D18250800B02E0010E01D0000EE66EFC
:1009A000F90EDBCFE9FFFA0EDBCFEAFFE552E750A5
:1009B000EF6EFB0EDBCFE9FFFC0EDBCFEAFF010E93
:1009C000EF6EF0D0FB0EDBCFE9FFFC0EDBCFEAFFD2
:1009D000080EEF6EDF6AFB0EDBCFE9FFFC0EDBCF0C
:1009E000EAFFEF50DF5C19E2DF50EA6A780FE96E48
:1009F000000EEA22EF50E66EDF50E76EF90EDBCF15
:100A0000E9FFFA0EDBCFEAFFE750E926000EEA2203
:100A1000E552E750EF6EDF2ADED7C4D0FB0EDBCF06
:100A2000E9FFFC0EDBCFEAFF060EEF6EF90EDBCF1F
:100A3000E9FFFA0EDBCFEAFF80CFEFFF010EE76E92
:100A4000F90EDBCFE9FFFA0EDBCFEAFFE750E9262C
:100A5000000EEA2281CFEFFF020EE76EF90EDBCF28
:100A6000E9FFFA0EDBCFEAFFE750E926000EEA22A3
:100A700082CFEFFF030EE76EF90EDBCFE9FFFA0E30
:100A8000DBCFEAFFE750E926000EEA2292CFEFFF24
:100A9000040EE76EF90EDBCFE9FFFA0EDBCFEAFFBB
:100AA000E750E926000EEA2293CFEFFF050EE76E2E
:100AB000F90EDBCFE9FFFA0EDBCFEAFFE750E926BC
:100AC000000EEA2294CFEFFF6DD0FB0EDBCFE9FFE3
:100AD000FC0EDBCFEAFF080EEF6EDF6A080EDF5C6C
:100AE00019E284C0E6FF3DEC06F0E552E66EDF5009
:100AF000E76EF90EDBCFE9FFFA0EDBCFEAFFE75036
:100B0000E926000EEA22E552E750EF6E0001842B41
:100B1000DF2AE4D747D000018451006E016A013416
:100B200004E20050FF08000E015401E2846B3AD049
:100B3000FD0EDB50806E36D0FD0EDB50816E32D064
:100B4000FD0EDB50826E2ED0FD0EDB50926E2AD051
:100B5000FD0EDB50936E26D0FD0EDB50946E22D03E
:100B6000FD0EDBCFE6FF82C0E6FF19EC06F0E55292
:100B7000E5520001836F822B8251040801E2826BEF
:100B8000827E83C07FF00ED00DD0030EE76EFB0E89
:100B9000DBCFE9FFFC0EDBCFEAFFE750E926000ED2
:100BA000EA22EF80020EE15C02E2E16AE552E16EC8
:080BB000E552E7CFD9FF120066
:080BB800D9CFE6FFE1CFD9FF20
:100BC000020EE126DF6ADF50006E016AD890015004
:100BD00004E6FF0E005C000E015817E2550EE66EAB
:100BE000DFCFE6FF26D8E552E552DFCFE6FF45D856
:100BF000E552550802E0010EDB2AE66ADFCFE6FF88
:100C000018D8E552E552DF2ADED7E66AE66811D841
:100C1000E552E552010EDB50006E020EE15C03E28C
:100C200000D0E16AE552E16E0050E552E7CFD9FF0E
:100C30001200D9CFE6FFE1CFD9FFE652DF6AF29E7C
:100C4000040EA66EFE0EDB50A96EFD0EDB50A86EE4
:100C5000550EA76EAA0EA76EA682A1A8FED7A198D0
:100C6000A6A602D0010EDF6EA66AF28EDF5000D07B
:100C7000E552E552E7CFD9FF1200D9CFE6FFE1CF29
:100C8000D9FFF29EA66AFE0EDB50A96EA680F28EF8
:0C0C9000A85000D0E552E7CFD9FF1200B9
:040C9C002A0EF66EB8
:100CA000000EF76E000EF86E00010900F5508A6F15
:100CB0000900F5508B6F03E18A6701D03DD0090030
:100CC000F550856F0900F550866F0900F550876F64
:100CD00009000900F550E96E0900F550EA6E0900B7
:100CE00009000900F550886F0900F550896F090067
:100CF0000900F6CF8CF0F7CF8DF0F8CF8EF085C0DD
:100D0000F6FF86C0F7FF87C0F8FF0001885302E1B5
:100D1000895307E00900F550EE6E8807F8E289076D
:100D2000F9D78CC0F6FF8DC0F7FF8EC0F8FF000129
:0A0D30008A07000E8B5BBFD712008C
:060D3A001201100100008F
:100D400000086666030000000102000109021200AB
:100D5000010100A0320904000000FF00FF000403AD
:100D6000090434035000720069006E0063006900DA
:100D700070006C006500730020006F0066002000AA
:100D800045006E00670069006E0065006500720036
:100D900069006E006700320345004E0047005200B4
:100DA0002000320032003100300020004C00610091
:100DB00062002000330020004600690072006D00D0
:080DC00077006100720065007C
:080DC800D9CFE6FFE1CFD9FF0E
:100DD0002E0EC06EFE0EDBCFE6FF0E0EE552D88063
:100DE000E754C16EFE0EDB50040DF350030FC26ECC
:100DF000C2B2FED7C45000D0E552E7CFD9FF1200EF
:100E0000000EF36E00EE00F0040E01D81200EA604E
:100E100002D0EE6AFCD7F350E9601200EE6AFCD70C
:100E200013EE00F023EE00F0F86A049C4EEC06F09E
:0C0E300029EC07F03DEC04F0FBD71200A9
:040E3C00FF0EE35072
:100E4000E84E1200000000D000D000D0E82EFAD703
:020E500012008E
:020E520012008C
:0C0E540000000000000000007F7F000094
:010E60000091
:020000040030CA
:0100000030CF
:0100010002FC
:010002003FBE
:010003001EDE
:010005008179
:010006008178
:010008000FE8
:01000900C036
:01000A000FE6
:01000B00E014
:01000C000FE4
:01000D0040B2
:00000001FF
